{
  "_format": "hh-sol-artifact-1",
  "contractName": "StarmanPack",
  "sourceName": "contracts/starman/StarmanV2.sol",
  "abi": [
    {
      "inputs": [
        {
          "internalType": "address",
          "name": "_adminVerifyWallet",
          "type": "address"
        }
      ],
      "stateMutability": "nonpayable",
      "type": "constructor"
    },
    {
      "anonymous": false,
      "inputs": [
        {
          "indexed": true,
          "internalType": "address",
          "name": "owner",
          "type": "address"
        },
        {
          "indexed": true,
          "internalType": "address",
          "name": "approved",
          "type": "address"
        },
        {
          "indexed": true,
          "internalType": "uint256",
          "name": "tokenId",
          "type": "uint256"
        }
      ],
      "name": "Approval",
      "type": "event"
    },
    {
      "anonymous": false,
      "inputs": [
        {
          "indexed": true,
          "internalType": "address",
          "name": "owner",
          "type": "address"
        },
        {
          "indexed": true,
          "internalType": "address",
          "name": "operator",
          "type": "address"
        },
        {
          "indexed": false,
          "internalType": "bool",
          "name": "approved",
          "type": "bool"
        }
      ],
      "name": "ApprovalForAll",
      "type": "event"
    },
    {
      "anonymous": false,
      "inputs": [
        {
          "indexed": true,
          "internalType": "address",
          "name": "previousOwner",
          "type": "address"
        },
        {
          "indexed": true,
          "internalType": "address",
          "name": "newOwner",
          "type": "address"
        }
      ],
      "name": "OwnershipTransferred",
      "type": "event"
    },
    {
      "anonymous": false,
      "inputs": [
        {
          "indexed": true,
          "internalType": "address",
          "name": "from",
          "type": "address"
        },
        {
          "indexed": true,
          "internalType": "address",
          "name": "to",
          "type": "address"
        },
        {
          "indexed": true,
          "internalType": "uint256",
          "name": "tokenId",
          "type": "uint256"
        }
      ],
      "name": "Transfer",
      "type": "event"
    },
    {
      "inputs": [],
      "name": "CARD_AMOUNT_PER_PACK",
      "outputs": [
        {
          "internalType": "uint256",
          "name": "",
          "type": "uint256"
        }
      ],
      "stateMutability": "view",
      "type": "function"
    },
    {
      "inputs": [
        {
          "internalType": "uint256",
          "name": "",
          "type": "uint256"
        }
      ],
      "name": "MAP_PACK_OPEN",
      "outputs": [
        {
          "internalType": "bool",
          "name": "",
          "type": "bool"
        }
      ],
      "stateMutability": "view",
      "type": "function"
    },
    {
      "inputs": [],
      "name": "PACK_OPEN_ENABLED",
      "outputs": [
        {
          "internalType": "bool",
          "name": "",
          "type": "bool"
        }
      ],
      "stateMutability": "view",
      "type": "function"
    },
    {
      "inputs": [
        {
          "internalType": "address[]",
          "name": "_airdropAddresses",
          "type": "address[]"
        },
        {
          "internalType": "uint256",
          "name": "_mintAmount",
          "type": "uint256"
        }
      ],
      "name": "airdrop",
      "outputs": [],
      "stateMutability": "nonpayable",
      "type": "function"
    },
    {
      "inputs": [
        {
          "internalType": "address",
          "name": "to",
          "type": "address"
        },
        {
          "internalType": "uint256",
          "name": "tokenId",
          "type": "uint256"
        }
      ],
      "name": "approve",
      "outputs": [],
      "stateMutability": "nonpayable",
      "type": "function"
    },
    {
      "inputs": [
        {
          "internalType": "address",
          "name": "owner",
          "type": "address"
        }
      ],
      "name": "balanceOf",
      "outputs": [
        {
          "internalType": "uint256",
          "name": "",
          "type": "uint256"
        }
      ],
      "stateMutability": "view",
      "type": "function"
    },
    {
      "inputs": [
        {
          "internalType": "uint256[]",
          "name": "_tokenIds",
          "type": "uint256[]"
        },
        {
          "internalType": "uint256",
          "name": "_timestamp",
          "type": "uint256"
        },
        {
          "internalType": "uint8",
          "name": "v",
          "type": "uint8"
        },
        {
          "internalType": "bytes32",
          "name": "r",
          "type": "bytes32"
        },
        {
          "internalType": "bytes32",
          "name": "s",
          "type": "bytes32"
        }
      ],
      "name": "claimPack",
      "outputs": [],
      "stateMutability": "nonpayable",
      "type": "function"
    },
    {
      "inputs": [
        {
          "internalType": "uint256[]",
          "name": "_tokenIds",
          "type": "uint256[]"
        },
        {
          "internalType": "uint256",
          "name": "_timestamp",
          "type": "uint256"
        },
        {
          "internalType": "address",
          "name": "_address",
          "type": "address"
        }
      ],
      "name": "convertMessage",
      "outputs": [
        {
          "internalType": "string",
          "name": "",
          "type": "string"
        }
      ],
      "stateMutability": "pure",
      "type": "function"
    },
    {
      "inputs": [
        {
          "internalType": "uint256",
          "name": "tokenId",
          "type": "uint256"
        }
      ],
      "name": "getApproved",
      "outputs": [
        {
          "internalType": "address",
          "name": "",
          "type": "address"
        }
      ],
      "stateMutability": "view",
      "type": "function"
    },
    {
      "inputs": [
        {
          "internalType": "address",
          "name": "_address",
          "type": "address"
        }
      ],
      "name": "getHoldingPacksAndCards",
      "outputs": [
        {
          "internalType": "uint256[]",
          "name": "resultPacks",
          "type": "uint256[]"
        },
        {
          "internalType": "uint256[]",
          "name": "resultCards",
          "type": "uint256[]"
        }
      ],
      "stateMutability": "view",
      "type": "function"
    },
    {
      "inputs": [
        {
          "internalType": "address",
          "name": "_address",
          "type": "address"
        }
      ],
      "name": "getHoldingPacksAndCardsCount",
      "outputs": [
        {
          "internalType": "uint256",
          "name": "packsCount",
          "type": "uint256"
        },
        {
          "internalType": "uint256",
          "name": "cardsCount",
          "type": "uint256"
        }
      ],
      "stateMutability": "view",
      "type": "function"
    },
    {
      "inputs": [
        {
          "internalType": "address",
          "name": "owner",
          "type": "address"
        },
        {
          "internalType": "address",
          "name": "operator",
          "type": "address"
        }
      ],
      "name": "isApprovedForAll",
      "outputs": [
        {
          "internalType": "bool",
          "name": "",
          "type": "bool"
        }
      ],
      "stateMutability": "view",
      "type": "function"
    },
    {
      "inputs": [],
      "name": "name",
      "outputs": [
        {
          "internalType": "string",
          "name": "",
          "type": "string"
        }
      ],
      "stateMutability": "view",
      "type": "function"
    },
    {
      "inputs": [
        {
          "internalType": "uint256[]",
          "name": "_tokenIds",
          "type": "uint256[]"
        }
      ],
      "name": "openPack",
      "outputs": [],
      "stateMutability": "nonpayable",
      "type": "function"
    },
    {
      "inputs": [],
      "name": "owner",
      "outputs": [
        {
          "internalType": "address",
          "name": "",
          "type": "address"
        }
      ],
      "stateMutability": "view",
      "type": "function"
    },
    {
      "inputs": [
        {
          "internalType": "uint256",
          "name": "tokenId",
          "type": "uint256"
        }
      ],
      "name": "ownerOf",
      "outputs": [
        {
          "internalType": "address",
          "name": "",
          "type": "address"
        }
      ],
      "stateMutability": "view",
      "type": "function"
    },
    {
      "inputs": [],
      "name": "renounceOwnership",
      "outputs": [],
      "stateMutability": "nonpayable",
      "type": "function"
    },
    {
      "inputs": [
        {
          "internalType": "address",
          "name": "from",
          "type": "address"
        },
        {
          "internalType": "address",
          "name": "to",
          "type": "address"
        },
        {
          "internalType": "uint256",
          "name": "tokenId",
          "type": "uint256"
        }
      ],
      "name": "safeTransferFrom",
      "outputs": [],
      "stateMutability": "nonpayable",
      "type": "function"
    },
    {
      "inputs": [
        {
          "internalType": "address",
          "name": "from",
          "type": "address"
        },
        {
          "internalType": "address",
          "name": "to",
          "type": "address"
        },
        {
          "internalType": "uint256",
          "name": "tokenId",
          "type": "uint256"
        },
        {
          "internalType": "bytes",
          "name": "data",
          "type": "bytes"
        }
      ],
      "name": "safeTransferFrom",
      "outputs": [],
      "stateMutability": "nonpayable",
      "type": "function"
    },
    {
      "inputs": [
        {
          "internalType": "address",
          "name": "_newAddress",
          "type": "address"
        }
      ],
      "name": "setAdminVerifyWallet",
      "outputs": [],
      "stateMutability": "nonpayable",
      "type": "function"
    },
    {
      "inputs": [
        {
          "internalType": "address",
          "name": "operator",
          "type": "address"
        },
        {
          "internalType": "bool",
          "name": "approved",
          "type": "bool"
        }
      ],
      "name": "setApprovalForAll",
      "outputs": [],
      "stateMutability": "nonpayable",
      "type": "function"
    },
    {
      "inputs": [
        {
          "internalType": "string",
          "name": "_newBaseURI",
          "type": "string"
        }
      ],
      "name": "setBaseURI",
      "outputs": [],
      "stateMutability": "nonpayable",
      "type": "function"
    },
    {
      "inputs": [
        {
          "internalType": "uint256",
          "name": "_newAmount",
          "type": "uint256"
        }
      ],
      "name": "setCardAmountPerPack",
      "outputs": [],
      "stateMutability": "nonpayable",
      "type": "function"
    },
    {
      "inputs": [
        {
          "internalType": "bool",
          "name": "_bEnabled",
          "type": "bool"
        }
      ],
      "name": "setEnablePackOpen",
      "outputs": [],
      "stateMutability": "nonpayable",
      "type": "function"
    },
    {
      "inputs": [
        {
          "internalType": "uint256",
          "name": "_supply",
          "type": "uint256"
        }
      ],
      "name": "setPackSupply",
      "outputs": [],
      "stateMutability": "nonpayable",
      "type": "function"
    },
    {
      "inputs": [
        {
          "internalType": "string",
          "name": "_newPackURI",
          "type": "string"
        }
      ],
      "name": "setPackURI",
      "outputs": [],
      "stateMutability": "nonpayable",
      "type": "function"
    },
    {
      "inputs": [
        {
          "internalType": "bytes4",
          "name": "interfaceId",
          "type": "bytes4"
        }
      ],
      "name": "supportsInterface",
      "outputs": [
        {
          "internalType": "bool",
          "name": "",
          "type": "bool"
        }
      ],
      "stateMutability": "view",
      "type": "function"
    },
    {
      "inputs": [],
      "name": "symbol",
      "outputs": [
        {
          "internalType": "string",
          "name": "",
          "type": "string"
        }
      ],
      "stateMutability": "view",
      "type": "function"
    },
    {
      "inputs": [
        {
          "internalType": "uint256",
          "name": "index",
          "type": "uint256"
        }
      ],
      "name": "tokenByIndex",
      "outputs": [
        {
          "internalType": "uint256",
          "name": "",
          "type": "uint256"
        }
      ],
      "stateMutability": "view",
      "type": "function"
    },
    {
      "inputs": [
        {
          "internalType": "address",
          "name": "owner",
          "type": "address"
        },
        {
          "internalType": "uint256",
          "name": "index",
          "type": "uint256"
        }
      ],
      "name": "tokenOfOwnerByIndex",
      "outputs": [
        {
          "internalType": "uint256",
          "name": "",
          "type": "uint256"
        }
      ],
      "stateMutability": "view",
      "type": "function"
    },
    {
      "inputs": [
        {
          "internalType": "uint256",
          "name": "tokenId",
          "type": "uint256"
        }
      ],
      "name": "tokenURI",
      "outputs": [
        {
          "internalType": "string",
          "name": "",
          "type": "string"
        }
      ],
      "stateMutability": "view",
      "type": "function"
    },
    {
      "inputs": [],
      "name": "totalSupply",
      "outputs": [
        {
          "internalType": "uint256",
          "name": "",
          "type": "uint256"
        }
      ],
      "stateMutability": "view",
      "type": "function"
    },
    {
      "inputs": [
        {
          "internalType": "address",
          "name": "from",
          "type": "address"
        },
        {
          "internalType": "address",
          "name": "to",
          "type": "address"
        },
        {
          "internalType": "uint256",
          "name": "tokenId",
          "type": "uint256"
        }
      ],
      "name": "transferFrom",
      "outputs": [],
      "stateMutability": "nonpayable",
      "type": "function"
    },
    {
      "inputs": [
        {
          "internalType": "address",
          "name": "newOwner",
          "type": "address"
        }
      ],
      "name": "transferOwnership",
      "outputs": [],
      "stateMutability": "nonpayable",
      "type": "function"
    },
    {
      "inputs": [
        {
          "internalType": "string",
          "name": "message",
          "type": "string"
        },
        {
          "internalType": "uint8",
          "name": "v",
          "type": "uint8"
        },
        {
          "internalType": "bytes32",
          "name": "r",
          "type": "bytes32"
        },
        {
          "internalType": "bytes32",
          "name": "s",
          "type": "bytes32"
        }
      ],
      "name": "verifyString",
      "outputs": [
        {
          "internalType": "address",
          "name": "signer",
          "type": "address"
        }
      ],
      "stateMutability": "pure",
      "type": "function"
    },
    {
      "inputs": [],
      "name": "withdraw",
      "outputs": [],
      "stateMutability": "nonpayable",
      "type": "function"
    }
  ],
  "bytecode": "0x6080604052620186a0600b55600e805460ff1916905560046012553480156200002757600080fd5b5060405162002dbe38038062002dbe8339810160408190526200004a9162000147565b6040518060400160405280600d81526020016c537461726d616e205061636b7360981b81525060405180604001604052806005815260200164053545852560dc1b81525081600090816200009f91906200021e565b506001620000ae82826200021e565b505050620000cb620000c5620000f160201b60201c565b620000f5565b601180546001600160a01b0319166001600160a01b0392909216919091179055620002ea565b3390565b600a80546001600160a01b038381166001600160a01b0319831681179093556040519116919082907f8be0079c531659141344cd1fd0a4f28419497f9722a3daafe3b4186f6b6457e090600090a35050565b6000602082840312156200015a57600080fd5b81516001600160a01b03811681146200017257600080fd5b9392505050565b634e487b7160e01b600052604160045260246000fd5b600181811c90821680620001a457607f821691505b602082108103620001c557634e487b7160e01b600052602260045260246000fd5b50919050565b601f8211156200021957600081815260208120601f850160051c81016020861015620001f45750805b601f850160051c820191505b81811015620002155782815560010162000200565b5050505b505050565b81516001600160401b038111156200023a576200023a62000179565b62000252816200024b84546200018f565b84620001cb565b602080601f8311600181146200028a5760008415620002715750858301515b600019600386901b1c1916600185901b17855562000215565b600085815260208120601f198616915b82811015620002bb578886015182559484019460019091019084016200029a565b5085821015620002da5787850151600019600388901b60f8161c191681555b5050505050600190811b01905550565b612ac480620002fa6000396000f3fe608060405234801561001057600080fd5b50600436106101dc5760003560e01c806370a0823111610105578063b88d4fde1161009d578063b88d4fde14610413578063c204642c14610426578063c87b56dd14610439578063ce71bff01461044c578063d2c3fbb71461045f578063e985e9c514610472578063e9db0f3d14610485578063ec67288a1461048e578063f2fde38b146104a157600080fd5b806370a0823114610374578063715018a61461038757806373a9b7ca1461038f5780637458d4e2146103a25780638da5cb5b146103b5578063920bdda1146103bd57806395d89b41146103d05780639c4b03b2146103d8578063a22cb4651461040057600080fd5b80632fee5732116101785780632fee5732146102bc5780633ccfd60b146102cf5780633e539fdb146102d757806342842e0e146102fa5780634f6ccce71461030d578063534a092b1461032057806355f804b31461032d5780635b964707146103405780636352211e1461036157600080fd5b806301ffc9a7146101e157806306fdde0314610209578063081812fc1461021e578063095ea7b3146102495780630f5de6aa1461025e57806318160ddd14610271578063221d54ac1461028357806323b872dd146102965780632f745c59146102a9575b600080fd5b6101f46101ef366004611fca565b6104b4565b60405190151581526020015b60405180910390f35b6102116104df565b6040516102009190612037565b61023161022c36600461204a565b610571565b6040516001600160a01b039091168152602001610200565b61025c61025736600461207a565b610598565b005b61025c61026c36600461204a565b6106b2565b6008545b604051908152602001610200565b61025c6102913660046120b4565b6106bf565b61025c6102a43660046120cf565b6106da565b6102756102b736600461207a565b61070b565b61025c6102ca3660046121df565b6107a1565b61025c610968565b6101f46102e536600461204a565b600f6020526000908152604090205460ff1681565b61025c6103083660046120cf565b6109b5565b61027561031b36600461204a565b6109d0565b600e546101f49060ff1681565b61025c61033b36600461228a565b610a63565b61035361034e3660046122be565b610a77565b604051610200929190612314565b61023161036f36600461204a565b610bda565b6102756103823660046122be565b610c0f565b61025c610c95565b61025c61039d36600461204a565b610ca9565b6102116103b0366004612342565b610cb6565b610231610d74565b61025c6103cb3660046122be565b610d83565b610211610dad565b6103eb6103e63660046122be565b610dbc565b60408051928352602083019190915201610200565b61025c61040e366004612398565b610e45565b61025c6104213660046123cb565b610e50565b61025c610434366004612446565b610e88565b61021161044736600461204a565b610ed7565b61025c61045a36600461228a565b610fae565b61023161046d3660046124f4565b610fc2565b6101f4610480366004612550565b61115d565b61027560125481565b61025c61049c36600461257a565b61118b565b61025c6104af3660046122be565b611317565b60006001600160e01b0319821663780e9d6360e01b14806104d957506104d982611390565b92915050565b6060600080546104ee906125e2565b80601f016020809104026020016040519081016040528092919081815260200182805461051a906125e2565b80156105675780601f1061053c57610100808354040283529160200191610567565b820191906000526020600020905b81548152906001019060200180831161054a57829003601f168201915b5050505050905090565b600061057c826113e0565b506000908152600460205260409020546001600160a01b031690565b60006105a382610bda565b9050806001600160a01b0316836001600160a01b0316036106155760405162461bcd60e51b815260206004820152602160248201527f4552433732313a20617070726f76616c20746f2063757272656e74206f776e656044820152603960f91b60648201526084015b60405180910390fd5b336001600160a01b03821614806106315750610631813361115d565b6106a35760405162461bcd60e51b815260206004820152603e60248201527f4552433732313a20617070726f76652063616c6c6572206973206e6f7420746f60448201527f6b656e206f776e6572206e6f7220617070726f76656420666f7220616c6c0000606482015260840161060c565b6106ad8383611405565b505050565b6106ba611473565b600b55565b6106c7611473565b600e805460ff1916911515919091179055565b6106e433826114d2565b6107005760405162461bcd60e51b815260040161060c9061261c565b6106ad838383611530565b600061071683610c0f565b82106107785760405162461bcd60e51b815260206004820152602b60248201527f455243373231456e756d657261626c653a206f776e657220696e646578206f7560448201526a74206f6620626f756e647360a81b606482015260840161060c565b506001600160a01b03919091166000908152600660209081526040808320938352929052205490565b600e5460ff166107ec5760405162461bcd60e51b81526020600482015260166024820152752234b9b0b13632b21027b3102830b1b59027b832b71760511b604482015260640161060c565b600060015b82518210156108da57600b5483838151811061080f5761080f61266a565b6020026020010151118061084257506108408383815181106108335761083361266a565b60200260200101516116d7565b155b806108805750336001600160a01b03166108748484815181106108675761086761266a565b6020026020010151610bda565b6001600160a01b031614155b806108bb5750600f600084848151811061089c5761089c61266a565b60209081029190910181015182528101919091526040016000205460ff165b156108c8575060006108da565b816108d281612696565b9250506107f1565b806108f75760405162461bcd60e51b815260040161060c906126af565b600091505b82518210156106ad576001600f600085858151811061091d5761091d61266a565b6020026020010151815260200190815260200160002060006101000a81548160ff021916908315150217905550610956336012546116f4565b8161096081612696565b9250506108fc565b610970611473565b47610979610d74565b6001600160a01b03166108fc829081150290604051600060405180830381858888f193505050501580156109b1573d6000803e3d6000fd5b5050565b6106ad83838360405180602001604052806000815250610e50565b60006109db60085490565b8210610a3e5760405162461bcd60e51b815260206004820152602c60248201527f455243373231456e756d657261626c653a20676c6f62616c20696e646578206f60448201526b7574206f6620626f756e647360a01b606482015260840161060c565b60088281548110610a5157610a5161266a565b90600052602060002001549050919050565b610a6b611473565b600c6109b18282612726565b606080600080610a8685610dbc565b91509150816001600160401b03811115610aa257610aa261210b565b604051908082528060200260200182016040528015610acb578160200160208202803683370190505b509350806001600160401b03811115610ae657610ae661210b565b604051908082528060200260200182016040528015610b0f578160200160208202803683370190505b5092506000610b1d86610c0f565b9050600080805b83831015610bcf576000610b388a8561070b565b9050600b548111158015610b5b57506000818152600f602052604090205460ff16155b15610b905780898481518110610b7357610b7361266a565b6020908102919091010152610b898360016127e5565b9250610bbc565b80888381518110610ba357610ba361266a565b6020908102919091010152610bb98260016127e5565b91505b5082610bc781612696565b935050610b24565b505050505050915091565b6000818152600260205260408120546001600160a01b0316806104d95760405162461bcd60e51b815260040161060c906127f8565b60006001600160a01b038216610c795760405162461bcd60e51b815260206004820152602960248201527f4552433732313a2061646472657373207a65726f206973206e6f7420612076616044820152683634b21037bbb732b960b91b606482015260840161060c565b506001600160a01b031660009081526003602052604090205490565b610c9d611473565b610ca7600061173e565b565b610cb1611473565b601255565b60408051602081019091526000808252606091905b8551811015610d2c5781610cf7878381518110610cea57610cea61266a565b6020026020010151611790565b604051602001610d0892919061282a565b60405160208183030381529060405291508080610d2490612696565b915050610ccb565b6000828587604051602001610d4393929190612866565b604051602081830303815290604052805190602001209050610d698160001c6020611890565b979650505050505050565b600a546001600160a01b031690565b610d8b611473565b601180546001600160a01b0319166001600160a01b0392909216919091179055565b6060600180546104ee906125e2565b6000806000610dca84610c0f565b905060005b81811015610e3e576000610de3868361070b565b9050600b548111158015610e0657506000818152600f602052604090205460ff16155b15610e1d57610e168560016127e5565b9450610e2b565b610e288460016127e5565b93505b5080610e3681612696565b915050610dcf565b5050915091565b6109b1338383611a32565b610e5a33836114d2565b610e765760405162461bcd60e51b815260040161060c9061261c565b610e8284848484611afc565b50505050565b610e90611473565b60005b82518110156106ad576000838281518110610eb057610eb061266a565b60200260200101519050610ec481846116f4565b5080610ecf81612696565b915050610e93565b6060610ee2826116d7565b610f465760405162461bcd60e51b815260206004820152602f60248201527f4552433732314d657461646174613a2055524920717565727920666f72206e6f60448201526e3732bc34b9ba32b73a103a37b5b2b760891b606482015260840161060c565b600b548211158015610f6757506000828152600f602052604090205460ff16155b15610f9e57600d610f7783611790565b604051602001610f889291906128a0565b6040516020818303038152906040529050919050565b600c610f7783611790565b919050565b610fb6611473565b600d6109b18282612726565b6040805180820190915260208082527f19457468657265756d205369676e6564204d6573736167653a0a303030303030908201528451600091906039820190620f423f81111561101157600080fd5b6000620186a05b80156110a357600061102a828561293d565b90508060000361104f578260000361104f57611047600a8361293d565b915050611018565b8261105981612696565b935061106790508282612951565b6110719085612968565b935061107e600a8361293d565b915061108b6030826127e5565b90508461109781612696565b95505080855350611018565b816000036110b457601b91506110c2565b6110bf601a836127e5565b91505b8185526000858b6040516020016110da92919061297b565b60408051601f1981840301815282825280516020918201206000845290830180835281905260ff8d1691830191909152606082018b9052608082018a9052915060019060a0016020604051602081039080840390855afa158015611142573d6000803e3d6000fd5b5050506020604051035196505050505050505b949350505050565b6001600160a01b03918216600090815260056020908152604080832093909416825291909152205460ff1690565b600060015b86518210156111f157600b548783815181106111ae576111ae61266a565b602002602001015111806111d257506111d28783815181106108335761083361266a565b156111df575060006111f1565b816111e981612696565b925050611190565b8061120e5760405162461bcd60e51b815260040161060c906126af565b603c61121a8742612968565b111561125c5760405162461bcd60e51b815260206004820152601160248201527014da59db985d1d5c9948195e1c1a5c9959607a1b604482015260640161060c565b6000611269888833610cb6565b6011549091506001600160a01b031661128482888888610fc2565b6001600160a01b0316146112ca5760405162461bcd60e51b815260206004820152600d60248201526c24b73b30b634b210383937b7b360991b604482015260640161060c565b600092505b875183101561130d576112fb338985815181106112ee576112ee61266a565b6020026020010151611b2f565b8261130581612696565b9350506112cf565b5050505050505050565b61131f611473565b6001600160a01b0381166113845760405162461bcd60e51b815260206004820152602660248201527f4f776e61626c653a206e6577206f776e657220697320746865207a65726f206160448201526564647265737360d01b606482015260840161060c565b61138d8161173e565b50565b60006001600160e01b031982166380ac58cd60e01b14806113c157506001600160e01b03198216635b5e139f60e01b145b806104d957506301ffc9a760e01b6001600160e01b03198316146104d9565b6113e9816116d7565b61138d5760405162461bcd60e51b815260040161060c906127f8565b600081815260046020526040902080546001600160a01b0319166001600160a01b038416908117909155819061143a82610bda565b6001600160a01b03167f8c5be1e5ebec7d5bd14f71427d1e84f3dd0314c0f7b2291e5b200ac8c7c3b92560405160405180910390a45050565b3361147c610d74565b6001600160a01b031614610ca75760405162461bcd60e51b815260206004820181905260248201527f4f776e61626c653a2063616c6c6572206973206e6f7420746865206f776e6572604482015260640161060c565b6000806114de83610bda565b9050806001600160a01b0316846001600160a01b031614806115055750611505818561115d565b806111555750836001600160a01b031661151e84610571565b6001600160a01b031614949350505050565b826001600160a01b031661154382610bda565b6001600160a01b0316146115a75760405162461bcd60e51b815260206004820152602560248201527f4552433732313a207472616e736665722066726f6d20696e636f72726563742060448201526437bbb732b960d91b606482015260840161060c565b6001600160a01b0382166116095760405162461bcd60e51b8152602060048201526024808201527f4552433732313a207472616e7366657220746f20746865207a65726f206164646044820152637265737360e01b606482015260840161060c565b611614838383611c6e565b61161f600082611405565b6001600160a01b0383166000908152600360205260408120805460019290611648908490612968565b90915550506001600160a01b03821660009081526003602052604081208054600192906116769084906127e5565b909155505060008181526002602052604080822080546001600160a01b0319166001600160a01b0386811691821790925591518493918716917fddf252ad1be2c89b69c2b068fc378daa952ba7f163c4a11628f55a4df523b3ef91a4505050565b6000908152600260205260409020546001600160a01b0316151590565b60005b818110156106ad5761170d601080546001019055565b61172c8361171a60105490565b600b5461172791906127e5565b611b2f565b8061173681612696565b9150506116f7565b600a80546001600160a01b038381166001600160a01b0319831681179093556040519116919082907f8be0079c531659141344cd1fd0a4f28419497f9722a3daafe3b4186f6b6457e090600090a35050565b6060816000036117b75750506040805180820190915260018152600360fc1b602082015290565b8160005b81156117e157806117cb81612696565b91506117da9050600a8361293d565b91506117bb565b6000816001600160401b038111156117fb576117fb61210b565b6040519080825280601f01601f191660200182016040528015611825576020820181803683370190505b5090505b84156111555761183a600183612968565b9150611847600a866129a1565b6118529060306127e5565b60f81b8183815181106118675761186761266a565b60200101906001600160f81b031916908160001a905350611889600a8661293d565b9450611829565b6060600061189f836002612951565b6118aa9060026127e5565b6001600160401b038111156118c1576118c161210b565b6040519080825280601f01601f1916602001820160405280156118eb576020820181803683370190505b509050600360fc1b816000815181106119065761190661266a565b60200101906001600160f81b031916908160001a905350600f60fb1b816001815181106119355761193561266a565b60200101906001600160f81b031916908160001a9053506000611959846002612951565b6119649060016127e5565b90505b60018111156119dc576f181899199a1a9b1b9c1cb0b131b232b360811b85600f16601081106119985761199861266a565b1a60f81b8282815181106119ae576119ae61266a565b60200101906001600160f81b031916908160001a90535060049490941c936119d5816129b5565b9050611967565b508315611a2b5760405162461bcd60e51b815260206004820181905260248201527f537472696e67733a20686578206c656e67746820696e73756666696369656e74604482015260640161060c565b9392505050565b816001600160a01b0316836001600160a01b031603611a8f5760405162461bcd60e51b815260206004820152601960248201527822a9219b99189d1030b8383937bb32903a379031b0b63632b960391b604482015260640161060c565b6001600160a01b03838116600081815260056020908152604080832094871680845294825291829020805460ff191686151590811790915591519182527f17307eab39ab6107e8899845ad3d59bd9653f200f220920489ca2b5937696c31910160405180910390a3505050565b611b07848484611530565b611b1384848484611d26565b610e825760405162461bcd60e51b815260040161060c906129cc565b6001600160a01b038216611b855760405162461bcd60e51b815260206004820181905260248201527f4552433732313a206d696e7420746f20746865207a65726f2061646472657373604482015260640161060c565b611b8e816116d7565b15611bdb5760405162461bcd60e51b815260206004820152601c60248201527f4552433732313a20746f6b656e20616c7265616479206d696e74656400000000604482015260640161060c565b611be760008383611c6e565b6001600160a01b0382166000908152600360205260408120805460019290611c109084906127e5565b909155505060008181526002602052604080822080546001600160a01b0319166001600160a01b03861690811790915590518392907fddf252ad1be2c89b69c2b068fc378daa952ba7f163c4a11628f55a4df523b3ef908290a45050565b6001600160a01b038316611cc957611cc481600880546000838152600960205260408120829055600182018355919091527ff3f7a9fe364faab93b216da50a3214154f22a0a2b415b23a84c8169e8b636ee30155565b611cec565b816001600160a01b0316836001600160a01b031614611cec57611cec8382611e24565b6001600160a01b038216611d03576106ad81611ec1565b826001600160a01b0316826001600160a01b0316146106ad576106ad8282611f70565b60006001600160a01b0384163b15611e1c57604051630a85bd0160e11b81526001600160a01b0385169063150b7a0290611d6a903390899088908890600401612a1e565b6020604051808303816000875af1925050508015611da5575060408051601f3d908101601f19168201909252611da291810190612a5b565b60015b611e02573d808015611dd3576040519150601f19603f3d011682016040523d82523d6000602084013e611dd8565b606091505b508051600003611dfa5760405162461bcd60e51b815260040161060c906129cc565b805181602001fd5b6001600160e01b031916630a85bd0160e11b149050611155565b506001611155565b60006001611e3184610c0f565b611e3b9190612968565b600083815260076020526040902054909150808214611e8e576001600160a01b03841660009081526006602090815260408083208584528252808320548484528184208190558352600790915290208190555b5060009182526007602090815260408084208490556001600160a01b039094168352600681528383209183525290812055565b600854600090611ed390600190612968565b60008381526009602052604081205460088054939450909284908110611efb57611efb61266a565b906000526020600020015490508060088381548110611f1c57611f1c61266a565b6000918252602080832090910192909255828152600990915260408082208490558582528120556008805480611f5457611f54612a78565b6001900381819060005260206000200160009055905550505050565b6000611f7b83610c0f565b6001600160a01b039093166000908152600660209081526040808320868452825280832085905593825260079052919091209190915550565b6001600160e01b03198116811461138d57600080fd5b600060208284031215611fdc57600080fd5b8135611a2b81611fb4565b60005b83811015612002578181015183820152602001611fea565b50506000910152565b60008151808452612023816020860160208601611fe7565b601f01601f19169290920160200192915050565b602081526000611a2b602083018461200b565b60006020828403121561205c57600080fd5b5035919050565b80356001600160a01b0381168114610fa957600080fd5b6000806040838503121561208d57600080fd5b61209683612063565b946020939093013593505050565b80358015158114610fa957600080fd5b6000602082840312156120c657600080fd5b611a2b826120a4565b6000806000606084860312156120e457600080fd5b6120ed84612063565b92506120fb60208501612063565b9150604084013590509250925092565b634e487b7160e01b600052604160045260246000fd5b604051601f8201601f191681016001600160401b03811182821017156121495761214961210b565b604052919050565b60006001600160401b0382111561216a5761216a61210b565b5060051b60200190565b600082601f83011261218557600080fd5b8135602061219a61219583612151565b612121565b82815260059290921b840181019181810190868411156121b957600080fd5b8286015b848110156121d457803583529183019183016121bd565b509695505050505050565b6000602082840312156121f157600080fd5b81356001600160401b0381111561220757600080fd5b61115584828501612174565b60006001600160401b0383111561222c5761222c61210b565b61223f601f8401601f1916602001612121565b905082815283838301111561225357600080fd5b828260208301376000602084830101529392505050565b600082601f83011261227b57600080fd5b611a2b83833560208501612213565b60006020828403121561229c57600080fd5b81356001600160401b038111156122b257600080fd5b6111558482850161226a565b6000602082840312156122d057600080fd5b611a2b82612063565b600081518084526020808501945080840160005b83811015612309578151875295820195908201906001016122ed565b509495945050505050565b60408152600061232760408301856122d9565b828103602084015261233981856122d9565b95945050505050565b60008060006060848603121561235757600080fd5b83356001600160401b0381111561236d57600080fd5b61237986828701612174565b9350506020840135915061238f60408501612063565b90509250925092565b600080604083850312156123ab57600080fd5b6123b483612063565b91506123c2602084016120a4565b90509250929050565b600080600080608085870312156123e157600080fd5b6123ea85612063565b93506123f860208601612063565b92506040850135915060608501356001600160401b0381111561241a57600080fd5b8501601f8101871361242b57600080fd5b61243a87823560208401612213565b91505092959194509250565b6000806040838503121561245957600080fd5b82356001600160401b0381111561246f57600080fd5b8301601f8101851361248057600080fd5b8035602061249061219583612151565b82815260059290921b830181019181810190888411156124af57600080fd5b938201935b838510156124d4576124c585612063565b825293820193908201906124b4565b98969091013596505050505050565b803560ff81168114610fa957600080fd5b6000806000806080858703121561250a57600080fd5b84356001600160401b0381111561252057600080fd5b61252c8782880161226a565b94505061253b602086016124e3565b93969395505050506040820135916060013590565b6000806040838503121561256357600080fd5b61256c83612063565b91506123c260208401612063565b600080600080600060a0868803121561259257600080fd5b85356001600160401b038111156125a857600080fd5b6125b488828901612174565b955050602086013593506125ca604087016124e3565b94979396509394606081013594506080013592915050565b600181811c908216806125f657607f821691505b60208210810361261657634e487b7160e01b600052602260045260246000fd5b50919050565b6020808252602e908201527f4552433732313a2063616c6c6572206973206e6f7420746f6b656e206f776e6560408201526d1c881b9bdc88185c1c1c9bdd995960921b606082015260800190565b634e487b7160e01b600052603260045260246000fd5b634e487b7160e01b600052601160045260246000fd5b6000600182016126a8576126a8612680565b5060010190565b6020808252600f908201526e496e76616c6964205061636b49447360881b604082015260600190565b601f8211156106ad57600081815260208120601f850160051c810160208610156126ff5750805b601f850160051c820191505b8181101561271e5782815560010161270b565b505050505050565b81516001600160401b0381111561273f5761273f61210b565b6127538161274d84546125e2565b846126d8565b602080601f83116001811461278857600084156127705750858301515b600019600386901b1c1916600185901b17855561271e565b600085815260208120601f198616915b828110156127b757888601518255948401946001909101908401612798565b50858210156127d55787850151600019600388901b60f8161c191681555b5050505050600190811b01905550565b808201808211156104d9576104d9612680565b602080825260189082015277115490cdcc8c4e881a5b9d985b1a59081d1bdad95b88125160421b604082015260600190565b6000835161283c818460208801611fe7565b605f60f81b908301908152835161285a816001840160208801611fe7565b01600101949350505050565b60008451612878818460208901611fe7565b60609490941b6001600160601b03191691909301908152601481019190915260340192915050565b60008084546128ae816125e2565b600182811680156128c657600181146128db5761290a565b60ff198416875282151583028701945061290a565b8860005260208060002060005b858110156129015781548a8201529084019082016128e8565b50505082870194505b50505050835161291e818360208801611fe7565b01949350505050565b634e487b7160e01b600052601260045260246000fd5b60008261294c5761294c612927565b500490565b80820281158282048414176104d9576104d9612680565b818103818111156104d9576104d9612680565b6000835161298d818460208801611fe7565b83519083019061291e818360208801611fe7565b6000826129b0576129b0612927565b500690565b6000816129c4576129c4612680565b506000190190565b60208082526032908201527f4552433732313a207472616e7366657220746f206e6f6e20455243373231526560408201527131b2b4bb32b91034b6b83632b6b2b73a32b960711b606082015260800190565b6001600160a01b0385811682528416602082015260408101839052608060608201819052600090612a519083018461200b565b9695505050505050565b600060208284031215612a6d57600080fd5b8151611a2b81611fb4565b634e487b7160e01b600052603160045260246000fdfea26469706673582212200579be244156a8ae30db09c034d1ea2dc20b2dfa591970d2be621ac9ca41648464736f6c63430008110033",
  "linkReferences": {},
  "deployedLinkReferences": {}
}