{
  "_format": "hh-sol-artifact-1",
  "contractName": "Starman",
  "sourceName": "contracts/starman/v1/starman.sol",
  "abi": [
    {
      "inputs": [
        {
          "internalType": "string",
          "name": "_project",
          "type": "string"
        },
        {
          "internalType": "string",
          "name": "_name",
          "type": "string"
        },
        {
          "internalType": "string",
          "name": "_symbol",
          "type": "string"
        },
        {
          "internalType": "uint256",
          "name": "_totalSupply",
          "type": "uint256"
        },
        {
          "internalType": "uint256",
          "name": "_mintingPrice",
          "type": "uint256"
        },
        {
          "internalType": "uint256",
          "name": "_mintingMax",
          "type": "uint256"
        },
        {
          "internalType": "uint256",
          "name": "_holdingMax",
          "type": "uint256"
        },
        {
          "internalType": "address",
          "name": "_secret",
          "type": "address"
        }
      ],
      "stateMutability": "nonpayable",
      "type": "constructor"
    },
    {
      "inputs": [],
      "name": "ApprovalCallerNotOwnerNorApproved",
      "type": "error"
    },
    {
      "inputs": [],
      "name": "ApprovalQueryForNonexistentToken",
      "type": "error"
    },
    {
      "inputs": [],
      "name": "ApprovalToCurrentOwner",
      "type": "error"
    },
    {
      "inputs": [],
      "name": "ApproveToCaller",
      "type": "error"
    },
    {
      "inputs": [],
      "name": "BalanceQueryForZeroAddress",
      "type": "error"
    },
    {
      "inputs": [],
      "name": "MintToZeroAddress",
      "type": "error"
    },
    {
      "inputs": [],
      "name": "MintZeroQuantity",
      "type": "error"
    },
    {
      "inputs": [],
      "name": "OwnerQueryForNonexistentToken",
      "type": "error"
    },
    {
      "inputs": [],
      "name": "TransferCallerNotOwnerNorApproved",
      "type": "error"
    },
    {
      "inputs": [],
      "name": "TransferFromIncorrectOwner",
      "type": "error"
    },
    {
      "inputs": [],
      "name": "TransferToNonERC721ReceiverImplementer",
      "type": "error"
    },
    {
      "inputs": [],
      "name": "TransferToZeroAddress",
      "type": "error"
    },
    {
      "anonymous": false,
      "inputs": [
        {
          "indexed": true,
          "internalType": "address",
          "name": "owner",
          "type": "address"
        },
        {
          "indexed": true,
          "internalType": "address",
          "name": "approved",
          "type": "address"
        },
        {
          "indexed": true,
          "internalType": "uint256",
          "name": "tokenId",
          "type": "uint256"
        }
      ],
      "name": "Approval",
      "type": "event"
    },
    {
      "anonymous": false,
      "inputs": [
        {
          "indexed": true,
          "internalType": "address",
          "name": "owner",
          "type": "address"
        },
        {
          "indexed": true,
          "internalType": "address",
          "name": "operator",
          "type": "address"
        },
        {
          "indexed": false,
          "internalType": "bool",
          "name": "approved",
          "type": "bool"
        }
      ],
      "name": "ApprovalForAll",
      "type": "event"
    },
    {
      "anonymous": false,
      "inputs": [
        {
          "indexed": true,
          "internalType": "address",
          "name": "previousOwner",
          "type": "address"
        },
        {
          "indexed": true,
          "internalType": "address",
          "name": "newOwner",
          "type": "address"
        }
      ],
      "name": "OwnershipTransferred",
      "type": "event"
    },
    {
      "anonymous": false,
      "inputs": [
        {
          "indexed": true,
          "internalType": "address",
          "name": "from",
          "type": "address"
        },
        {
          "indexed": true,
          "internalType": "address",
          "name": "to",
          "type": "address"
        },
        {
          "indexed": true,
          "internalType": "uint256",
          "name": "tokenId",
          "type": "uint256"
        }
      ],
      "name": "Transfer",
      "type": "event"
    },
    {
      "inputs": [
        {
          "internalType": "address",
          "name": "to",
          "type": "address"
        },
        {
          "internalType": "uint256",
          "name": "tokenId",
          "type": "uint256"
        }
      ],
      "name": "approve",
      "outputs": [],
      "stateMutability": "nonpayable",
      "type": "function"
    },
    {
      "inputs": [
        {
          "internalType": "address",
          "name": "owner",
          "type": "address"
        }
      ],
      "name": "balanceOf",
      "outputs": [
        {
          "internalType": "uint256",
          "name": "",
          "type": "uint256"
        }
      ],
      "stateMutability": "view",
      "type": "function"
    },
    {
      "inputs": [],
      "name": "baseURI",
      "outputs": [
        {
          "internalType": "string",
          "name": "",
          "type": "string"
        }
      ],
      "stateMutability": "view",
      "type": "function"
    },
    {
      "inputs": [],
      "name": "contractURI",
      "outputs": [
        {
          "internalType": "string",
          "name": "",
          "type": "string"
        }
      ],
      "stateMutability": "view",
      "type": "function"
    },
    {
      "inputs": [],
      "name": "defaultWithdrawAddress",
      "outputs": [
        {
          "internalType": "address",
          "name": "",
          "type": "address"
        }
      ],
      "stateMutability": "view",
      "type": "function"
    },
    {
      "inputs": [
        {
          "internalType": "uint256",
          "name": "tokenId",
          "type": "uint256"
        }
      ],
      "name": "getApproved",
      "outputs": [
        {
          "internalType": "address",
          "name": "",
          "type": "address"
        }
      ],
      "stateMutability": "view",
      "type": "function"
    },
    {
      "inputs": [
        {
          "internalType": "address",
          "name": "sender",
          "type": "address"
        }
      ],
      "name": "getHoldings",
      "outputs": [
        {
          "internalType": "uint256",
          "name": "",
          "type": "uint256"
        }
      ],
      "stateMutability": "view",
      "type": "function"
    },
    {
      "inputs": [],
      "name": "holdingMax",
      "outputs": [
        {
          "internalType": "uint256",
          "name": "",
          "type": "uint256"
        }
      ],
      "stateMutability": "view",
      "type": "function"
    },
    {
      "inputs": [
        {
          "internalType": "address",
          "name": "owner",
          "type": "address"
        },
        {
          "internalType": "address",
          "name": "operator",
          "type": "address"
        }
      ],
      "name": "isApprovedForAll",
      "outputs": [
        {
          "internalType": "bool",
          "name": "",
          "type": "bool"
        }
      ],
      "stateMutability": "view",
      "type": "function"
    },
    {
      "inputs": [
        {
          "internalType": "bytes",
          "name": "signature",
          "type": "bytes"
        },
        {
          "internalType": "uint256",
          "name": "tokenAmount",
          "type": "uint256"
        }
      ],
      "name": "mint",
      "outputs": [],
      "stateMutability": "payable",
      "type": "function"
    },
    {
      "inputs": [
        {
          "internalType": "address",
          "name": "receiver",
          "type": "address"
        },
        {
          "internalType": "uint256",
          "name": "tokenAmount",
          "type": "uint256"
        }
      ],
      "name": "mintByOwner",
      "outputs": [],
      "stateMutability": "nonpayable",
      "type": "function"
    },
    {
      "inputs": [],
      "name": "minted",
      "outputs": [
        {
          "internalType": "uint256",
          "name": "",
          "type": "uint256"
        }
      ],
      "stateMutability": "view",
      "type": "function"
    },
    {
      "inputs": [],
      "name": "mintingMax",
      "outputs": [
        {
          "internalType": "uint256",
          "name": "",
          "type": "uint256"
        }
      ],
      "stateMutability": "view",
      "type": "function"
    },
    {
      "inputs": [],
      "name": "mintingPrice",
      "outputs": [
        {
          "internalType": "uint256",
          "name": "",
          "type": "uint256"
        }
      ],
      "stateMutability": "view",
      "type": "function"
    },
    {
      "inputs": [],
      "name": "name",
      "outputs": [
        {
          "internalType": "string",
          "name": "",
          "type": "string"
        }
      ],
      "stateMutability": "view",
      "type": "function"
    },
    {
      "inputs": [],
      "name": "open",
      "outputs": [
        {
          "internalType": "bool",
          "name": "",
          "type": "bool"
        }
      ],
      "stateMutability": "view",
      "type": "function"
    },
    {
      "inputs": [],
      "name": "owner",
      "outputs": [
        {
          "internalType": "address",
          "name": "",
          "type": "address"
        }
      ],
      "stateMutability": "view",
      "type": "function"
    },
    {
      "inputs": [
        {
          "internalType": "uint256",
          "name": "tokenId",
          "type": "uint256"
        }
      ],
      "name": "ownerOf",
      "outputs": [
        {
          "internalType": "address",
          "name": "",
          "type": "address"
        }
      ],
      "stateMutability": "view",
      "type": "function"
    },
    {
      "inputs": [],
      "name": "project",
      "outputs": [
        {
          "internalType": "string",
          "name": "",
          "type": "string"
        }
      ],
      "stateMutability": "view",
      "type": "function"
    },
    {
      "inputs": [],
      "name": "renounceOwnership",
      "outputs": [],
      "stateMutability": "nonpayable",
      "type": "function"
    },
    {
      "inputs": [
        {
          "internalType": "address",
          "name": "from",
          "type": "address"
        },
        {
          "internalType": "address",
          "name": "to",
          "type": "address"
        },
        {
          "internalType": "uint256",
          "name": "tokenId",
          "type": "uint256"
        }
      ],
      "name": "safeTransferFrom",
      "outputs": [],
      "stateMutability": "nonpayable",
      "type": "function"
    },
    {
      "inputs": [
        {
          "internalType": "address",
          "name": "from",
          "type": "address"
        },
        {
          "internalType": "address",
          "name": "to",
          "type": "address"
        },
        {
          "internalType": "uint256",
          "name": "tokenId",
          "type": "uint256"
        },
        {
          "internalType": "bytes",
          "name": "_data",
          "type": "bytes"
        }
      ],
      "name": "safeTransferFrom",
      "outputs": [],
      "stateMutability": "nonpayable",
      "type": "function"
    },
    {
      "inputs": [],
      "name": "secret",
      "outputs": [
        {
          "internalType": "address",
          "name": "",
          "type": "address"
        }
      ],
      "stateMutability": "view",
      "type": "function"
    },
    {
      "inputs": [
        {
          "internalType": "address",
          "name": "operator",
          "type": "address"
        },
        {
          "internalType": "bool",
          "name": "approved",
          "type": "bool"
        }
      ],
      "name": "setApprovalForAll",
      "outputs": [],
      "stateMutability": "nonpayable",
      "type": "function"
    },
    {
      "inputs": [
        {
          "internalType": "string",
          "name": "newBaseURI",
          "type": "string"
        }
      ],
      "name": "setContractURI",
      "outputs": [],
      "stateMutability": "nonpayable",
      "type": "function"
    },
    {
      "inputs": [
        {
          "internalType": "uint256",
          "name": "_holdingMax",
          "type": "uint256"
        }
      ],
      "name": "setHoldingMax",
      "outputs": [],
      "stateMutability": "nonpayable",
      "type": "function"
    },
    {
      "inputs": [
        {
          "internalType": "uint256",
          "name": "_mintingMax",
          "type": "uint256"
        }
      ],
      "name": "setMintingMax",
      "outputs": [],
      "stateMutability": "nonpayable",
      "type": "function"
    },
    {
      "inputs": [
        {
          "internalType": "uint256",
          "name": "_mintingPrice",
          "type": "uint256"
        }
      ],
      "name": "setMintingPrice",
      "outputs": [],
      "stateMutability": "nonpayable",
      "type": "function"
    },
    {
      "inputs": [
        {
          "internalType": "uint256",
          "name": "_totalSupply",
          "type": "uint256"
        },
        {
          "internalType": "uint256",
          "name": "_mintingPrice",
          "type": "uint256"
        },
        {
          "internalType": "uint256",
          "name": "_mintingMax",
          "type": "uint256"
        },
        {
          "internalType": "uint256",
          "name": "_holdingMax",
          "type": "uint256"
        }
      ],
      "name": "setMultiple",
      "outputs": [],
      "stateMutability": "nonpayable",
      "type": "function"
    },
    {
      "inputs": [
        {
          "internalType": "bool",
          "name": "_open",
          "type": "bool"
        }
      ],
      "name": "setOpen",
      "outputs": [],
      "stateMutability": "nonpayable",
      "type": "function"
    },
    {
      "inputs": [
        {
          "internalType": "uint256",
          "name": "_totalSupply",
          "type": "uint256"
        }
      ],
      "name": "setTotalSupply",
      "outputs": [],
      "stateMutability": "nonpayable",
      "type": "function"
    },
    {
      "inputs": [
        {
          "internalType": "bool",
          "name": "_whitelisted",
          "type": "bool"
        }
      ],
      "name": "setWhitelistFlag",
      "outputs": [],
      "stateMutability": "nonpayable",
      "type": "function"
    },
    {
      "inputs": [
        {
          "internalType": "address",
          "name": "_secret",
          "type": "address"
        }
      ],
      "name": "setWhitelistedAddress",
      "outputs": [],
      "stateMutability": "nonpayable",
      "type": "function"
    },
    {
      "inputs": [],
      "name": "stage",
      "outputs": [
        {
          "internalType": "uint256",
          "name": "",
          "type": "uint256"
        }
      ],
      "stateMutability": "view",
      "type": "function"
    },
    {
      "inputs": [
        {
          "internalType": "bytes4",
          "name": "interfaceId",
          "type": "bytes4"
        }
      ],
      "name": "supportsInterface",
      "outputs": [
        {
          "internalType": "bool",
          "name": "",
          "type": "bool"
        }
      ],
      "stateMutability": "view",
      "type": "function"
    },
    {
      "inputs": [],
      "name": "symbol",
      "outputs": [
        {
          "internalType": "string",
          "name": "",
          "type": "string"
        }
      ],
      "stateMutability": "view",
      "type": "function"
    },
    {
      "inputs": [
        {
          "internalType": "uint256",
          "name": "tokenId",
          "type": "uint256"
        }
      ],
      "name": "tokenURI",
      "outputs": [
        {
          "internalType": "string",
          "name": "",
          "type": "string"
        }
      ],
      "stateMutability": "view",
      "type": "function"
    },
    {
      "inputs": [],
      "name": "totalSupply",
      "outputs": [
        {
          "internalType": "uint256",
          "name": "",
          "type": "uint256"
        }
      ],
      "stateMutability": "view",
      "type": "function"
    },
    {
      "inputs": [
        {
          "internalType": "address",
          "name": "from",
          "type": "address"
        },
        {
          "internalType": "address",
          "name": "to",
          "type": "address"
        },
        {
          "internalType": "uint256",
          "name": "tokenId",
          "type": "uint256"
        }
      ],
      "name": "transferFrom",
      "outputs": [],
      "stateMutability": "nonpayable",
      "type": "function"
    },
    {
      "inputs": [
        {
          "internalType": "address",
          "name": "newOwner",
          "type": "address"
        }
      ],
      "name": "transferOwnership",
      "outputs": [],
      "stateMutability": "nonpayable",
      "type": "function"
    },
    {
      "inputs": [
        {
          "internalType": "address",
          "name": "",
          "type": "address"
        },
        {
          "internalType": "uint256",
          "name": "",
          "type": "uint256"
        }
      ],
      "name": "walletHoldings",
      "outputs": [
        {
          "internalType": "uint256",
          "name": "",
          "type": "uint256"
        }
      ],
      "stateMutability": "view",
      "type": "function"
    },
    {
      "inputs": [],
      "name": "whitelisted",
      "outputs": [
        {
          "internalType": "bool",
          "name": "",
          "type": "bool"
        }
      ],
      "stateMutability": "view",
      "type": "function"
    },
    {
      "inputs": [
        {
          "internalType": "address",
          "name": "depositAddress",
          "type": "address"
        },
        {
          "internalType": "uint256",
          "name": "amount",
          "type": "uint256"
        }
      ],
      "name": "withdrawETH",
      "outputs": [],
      "stateMutability": "nonpayable",
      "type": "function"
    }
  ],
  "bytecode": "0x60806040523480156200001157600080fd5b506040516200284d3803806200284d833981016040819052620000349162000209565b86866200004133620000d7565b60036200004f838262000363565b5060046200005e828262000363565b5050600180805560095550600a62000077898262000363565b50600c93909355600d91909155600e55600f805460ff19908116909155601180549091166001908117909155611388600b55601580546001600160a01b0319166001600160a01b0390931692909217909155601355506200042f92505050565b600080546001600160a01b038381166001600160a01b0319831681178455604051919092169283917f8be0079c531659141344cd1fd0a4f28419497f9722a3daafe3b4186f6b6457e09190a35050565b634e487b7160e01b600052604160045260246000fd5b600082601f8301126200014f57600080fd5b81516001600160401b03808211156200016c576200016c62000127565b604051601f8301601f19908116603f0116810190828211818310171562000197576200019762000127565b81604052838152602092508683858801011115620001b457600080fd5b600091505b83821015620001d85785820183015181830184015290820190620001b9565b600093810190920192909252949350505050565b80516001600160a01b03811681146200020457600080fd5b919050565b600080600080600080600080610100898b0312156200022757600080fd5b88516001600160401b03808211156200023f57600080fd5b6200024d8c838d016200013d565b995060208b01519150808211156200026457600080fd5b620002728c838d016200013d565b985060408b01519150808211156200028957600080fd5b50620002988b828c016200013d565b965050606089015194506080890151935060a0890151925060c08901519150620002c560e08a01620001ec565b90509295985092959890939650565b600181811c90821680620002e957607f821691505b6020821081036200030a57634e487b7160e01b600052602260045260246000fd5b50919050565b601f8211156200035e57600081815260208120601f850160051c81016020861015620003395750805b601f850160051c820191505b818110156200035a5782815560010162000345565b5050505b505050565b81516001600160401b038111156200037f576200037f62000127565b6200039781620003908454620002d4565b8462000310565b602080601f831160018114620003cf5760008415620003b65750858301515b600019600386901b1c1916600185901b1785556200035a565b600085815260208120601f198616915b828110156200040057888601518255948401946001909101908401620003df565b50858210156200041f5787850151600019600388901b60f8161c191681555b5050505050600190811b01905550565b61240e806200043f6000396000f3fe60806040526004361061021b5760003560e01c8063715018a611610124578063d1efd30d116100a6578063d1efd30d146105f6578063da52c52214610616578063e0ab27681461062c578063e6b7354e14610664578063e8a3d48514610684578063e985e9c514610699578063f096b0ff146106b9578063f2fde38b146106d9578063f60ca60d146106f9578063f7ea7a3d1461070e578063fcfff16f1461072e57600080fd5b8063715018a6146104b85780638417b47f146104cd578063859c263a146104ed5780638da5cb5b1461050d578063938e3d7b1461052b57806395d89b411461054b578063a22cb46514610560578063b88d4fde14610580578063bb77aa3e146105a0578063c040e6b8146105c0578063c87b56dd146105d657600080fd5b806335db70b5116101ad57806335db70b51461037e5780633d9287fa146103945780634200e4fc146103ae57806342842e0e146103ce5780634782f779146103ee5780634f02c4201461040e57806358f9ebb5146104235780636352211e146104435780636c0360eb146104635780636fdca5e01461047857806370a082311461049857600080fd5b80622576121461022057806301ffc9a71461023557806306fdde031461026a578063081812fc1461028c578063095ea7b3146102c457806318160ddd146102e45780631be52dc41461030857806323b872dd1461032857806328cd8ef1146103485780633542aee21461035e575b600080fd5b61023361022e366004611e1c565b610748565b005b34801561024157600080fd5b50610255610250366004611e76565b61092c565b60405190151581526020015b60405180910390f35b34801561027657600080fd5b5061027f61097e565b6040516102619190611ee3565b34801561029857600080fd5b506102ac6102a7366004611ef6565b610a10565b6040516001600160a01b039091168152602001610261565b3480156102d057600080fd5b506102336102df366004611f2b565b610a54565b3480156102f057600080fd5b506102fa600b5481565b604051908152602001610261565b34801561031457600080fd5b506102fa610323366004611f55565b610ae1565b34801561033457600080fd5b50610233610343366004611f70565b610b39565b34801561035457600080fd5b506102fa600e5481565b34801561036a57600080fd5b50610233610379366004611f2b565b610b44565b34801561038a57600080fd5b506102fa600c5481565b3480156103a057600080fd5b506011546102559060ff1681565b3480156103ba57600080fd5b506102336103c9366004611fbc565b610b8d565b3480156103da57600080fd5b506102336103e9366004611f70565b610ba8565b3480156103fa57600080fd5b50610233610409366004611f2b565b610bc3565b34801561041a57600080fd5b506102fa610c9f565b34801561042f57600080fd5b506014546102ac906001600160a01b031681565b34801561044f57600080fd5b506102ac61045e366004611ef6565b610cae565b34801561046f57600080fd5b5061027f610cc0565b34801561048457600080fd5b50610233610493366004611fbc565b610d4e565b3480156104a457600080fd5b506102fa6104b3366004611f55565b610d69565b3480156104c457600080fd5b50610233610db7565b3480156104d957600080fd5b506102336104e8366004611ef6565b610dcb565b3480156104f957600080fd5b50610233610508366004611fd7565b610de2565b34801561051957600080fd5b506000546001600160a01b03166102ac565b34801561053757600080fd5b50610233610546366004612009565b610e4c565b34801561055757600080fd5b5061027f610e60565b34801561056c57600080fd5b5061023361057b366004612051565b610e6f565b34801561058c57600080fd5b5061023361059b366004612084565b610f04565b3480156105ac57600080fd5b506102336105bb366004611ef6565b610f4f565b3480156105cc57600080fd5b506102fa60135481565b3480156105e257600080fd5b5061027f6105f1366004611ef6565b610f5c565b34801561060257600080fd5b506015546102ac906001600160a01b031681565b34801561062257600080fd5b506102fa600d5481565b34801561063857600080fd5b506102fa610647366004611f2b565b601660209081526000928352604080842090915290825290205481565b34801561067057600080fd5b5061023361067f366004611ef6565b611150565b34801561069057600080fd5b5061027f611175565b3480156106a557600080fd5b506102556106b43660046120eb565b611184565b3480156106c557600080fd5b506102336106d4366004611f55565b6111b2565b3480156106e557600080fd5b506102336106f4366004611f55565b6111dc565b34801561070557600080fd5b5061027f611255565b34801561071a57600080fd5b50610233610729366004611ef6565b611262565b34801561073a57600080fd5b50600f546102559060ff1681565b610750611296565b600f5460ff166107995760405162461bcd60e51b815260206004820152600f60248201526e10dbdb9d1c9858dd0818db1bdcd959608a1b60448201526064015b60405180910390fd5b6107a2816112ef565b6107e15760405162461bcd60e51b815260206004820152601060248201526f092dce6eaccccd2c6d2cadce8408aa8960831b6044820152606401610790565b6107ea81611308565b6108065760405162461bcd60e51b815260040161079090612115565b61081281600d54101590565b6108505760405162461bcd60e51b815260206004820152600f60248201526e546f6f206d616e7920746f6b656e7360881b6044820152606401610790565b61085a8282611327565b6108985760405162461bcd60e51b815260206004820152600f60248201526e139bdd081dda1a5d195b1a5cdd1959608a1b6044820152606401610790565b6108a233826113d1565b6108e45760405162461bcd60e51b8152602060048201526013602482015272151bdad95b881a1bdb191a5b99c81b1a5b5a5d606a1b6044820152606401610790565b6108ee338261140e565b33600090815260166020908152604080832060135484529091528120805483929061091a908490612151565b909155505060016009555050565b5050565b60006001600160e01b031982166380ac58cd60e01b148061095d57506001600160e01b03198216635b5e139f60e01b145b8061097857506301ffc9a760e01b6001600160e01b03198316145b92915050565b60606003805461098d90612164565b80601f01602080910402602001604051908101604052809291908181526020018280546109b990612164565b8015610a065780601f106109db57610100808354040283529160200191610a06565b820191906000526020600020905b8154815290600101906020018083116109e957829003601f168201915b5050505050905090565b6000610a1b82611418565b610a38576040516333d1c03960e21b815260040160405180910390fd5b506000908152600760205260409020546001600160a01b031690565b6000610a5f82610cae565b9050806001600160a01b0316836001600160a01b031603610a935760405163250fdee360e21b815260040160405180910390fd5b336001600160a01b03821614801590610ab35750610ab18133611184565b155b15610ad1576040516367d9dca160e11b815260040160405180910390fd5b610adc838383611451565b505050565b60135460009081905b8015610b32576001600160a01b0384166000908152601660209081526040808320848452909152902054610b1e9083612151565b915080610b2a8161219e565b915050610aea565b5092915050565b610adc8383836114ad565b610b4c611689565b610b54611296565b610b5d81611308565b610b795760405162461bcd60e51b815260040161079090612115565b610b83828261140e565b6109286001600955565b610b95611689565b6011805460ff1916911515919091179055565b610adc83838360405180602001604052806000815250610f04565b610bcb611689565b4780821115610c115760405162461bcd60e51b8152602060048201526012602482015271496e73756666696369656e742066756e647360701b6044820152606401610790565b6001600160a01b038316610c635760405162461bcd60e51b81526020600482015260196024820152785769746864726177696e6720746f206164647265737328302960381b6044820152606401610790565b6040516001600160a01b0384169083156108fc029084906000818181858888f19350505050158015610c99573d6000803e3d6000fd5b50505050565b6000610ca96116e3565b905090565b6000610cb9826116ed565b5192915050565b60108054610ccd90612164565b80601f0160208091040260200160405190810160405280929190818152602001828054610cf990612164565b8015610d465780601f10610d1b57610100808354040283529160200191610d46565b820191906000526020600020905b815481529060010190602001808311610d2957829003601f168201915b505050505081565b610d56611689565b600f805460ff1916911515919091179055565b60006001600160a01b038216610d92576040516323d3ad8160e21b815260040160405180910390fd5b506001600160a01b03166000908152600660205260409020546001600160401b031690565b610dbf611689565b610dc96000611814565b565b610dd3611689565b600c55600f805460ff19169055565b610dea611689565b610df26116e3565b8411610e105760405162461bcd60e51b8152600401610790906121b5565b600b849055600c839055600f805460ff19166001179055600d829055600e81905560138054906000610e41836121e3565b919050555050505050565b610e54611689565b6010610928828261224a565b60606004805461098d90612164565b336001600160a01b03831603610e985760405163b06307db60e01b815260040160405180910390fd5b3360008181526008602090815260408083206001600160a01b03871680855290835292819020805460ff191686151590811790915590519081529192917f17307eab39ab6107e8899845ad3d59bd9653f200f220920489ca2b5937696c31910160405180910390a35050565b610f0f8484846114ad565b6001600160a01b0383163b15158015610f315750610f2f84848484611864565b155b15610c99576040516368d2bf6b60e11b815260040160405180910390fd5b610f57611689565b600d55565b6060610f6782611418565b610fcb5760405162461bcd60e51b815260206004820152602f60248201527f4552433732314d657461646174613a2055524920717565727920666f72206e6f60448201526e3732bc34b9ba32b73a103a37b5b2b760891b6064820152608401610790565b60008281526012602052604081208054610fe490612164565b80601f016020809104026020016040519081016040528092919081815260200182805461101090612164565b801561105d5780601f106110325761010080835404028352916020019161105d565b820191906000526020600020905b81548152906001019060200180831161104057829003601f168201915b5050505050905060006010805461107390612164565b80601f016020809104026020016040519081016040528092919081815260200182805461109f90612164565b80156110ec5780601f106110c1576101008083540402835291602001916110ec565b820191906000526020600020905b8154815290600101906020018083116110cf57829003601f168201915b505050505090508051600003611103575092915050565b81511561113557808260405160200161111d929190612309565b60405160208183030381529060405292505050919050565b8061113f85611950565b60405160200161111d929190612309565b611158611689565b600e8190556013805490600061116d836121e3565b919050555050565b60606010805461098d90612164565b6001600160a01b03918216600090815260086020908152604080832093909416825291909152205460ff1690565b6111ba611689565b601580546001600160a01b0319166001600160a01b0392909216919091179055565b6111e4611689565b6001600160a01b0381166112495760405162461bcd60e51b815260206004820152602660248201527f4f776e61626c653a206e6577206f776e657220697320746865207a65726f206160448201526564647265737360d01b6064820152608401610790565b61125281611814565b50565b600a8054610ccd90612164565b61126a611689565b6112726116e3565b8110156112915760405162461bcd60e51b8152600401610790906121b5565b600b55565b6002600954036112e85760405162461bcd60e51b815260206004820152601f60248201527f5265656e7472616e637947756172643a207265656e7472616e742063616c6c006044820152606401610790565b6002600955565b6000600c54826112ff9190612338565b34101592915050565b60006113126116e3565b61131c9083612151565b600b54101592915050565b60115460009060ff1661133c57506001610978565b6040805180820182523380825260208083018690528351808201929092528184018690528351808303850181526060830185528051908201207f19457468657265756d205369676e6564204d6573736167653a0a3332000000006080840152609c8084018290528551808503909101815260bc90930190945281519101209091906113c781876119e2565b9695505050505050565b6001600160a01b03821660009081526016602090815260408083206013548452909152812054600e546114048483612151565b1115949350505050565b6109288282611ad4565b60008160011115801561142c575060015482105b8015610978575050600090815260056020526040902054600160e01b900460ff161590565b60008281526007602052604080822080546001600160a01b0319166001600160a01b0387811691821790925591518593918516917f8c5be1e5ebec7d5bd14f71427d1e84f3dd0314c0f7b2291e5b200ac8c7c3b92591a4505050565b60006114b8826116ed565b9050836001600160a01b031681600001516001600160a01b0316146114ef5760405162a1148160e81b815260040160405180910390fd5b6000336001600160a01b038616148061150d575061150d8533611184565b8061152857503361151d84610a10565b6001600160a01b0316145b90508061154857604051632ce44b5f60e11b815260040160405180910390fd5b6001600160a01b03841661156f57604051633a954ecd60e21b815260040160405180910390fd5b61157b60008487611451565b6001600160a01b038581166000908152600660209081526040808320805467ffffffffffffffff198082166001600160401b0392831660001901831617909255898616808652838620805493841693831660019081018416949094179055898652600590945282852080546001600160e01b031916909417600160a01b4290921691909102178355870180845292208054919390911661164f57600154821461164f57805460208601516001600160401b0316600160a01b026001600160e01b03199091166001600160a01b038a16171781555b50505082846001600160a01b0316866001600160a01b03166000805160206123b983398151915260405160405180910390a45b5050505050565b6000546001600160a01b03163314610dc95760405162461bcd60e51b815260206004820181905260248201527f4f776e61626c653a2063616c6c6572206973206e6f7420746865206f776e65726044820152606401610790565b6001546000190190565b6040805160608101825260008082526020820181905291810191909152818060011115801561171d575060015481105b156117fb57600081815260056020908152604091829020825160608101845290546001600160a01b0381168252600160a01b81046001600160401b031692820192909252600160e01b90910460ff161515918101829052906117f95780516001600160a01b031615611790579392505050565b5060001901600081815260056020908152604091829020825160608101845290546001600160a01b038116808352600160a01b82046001600160401b031693830193909352600160e01b900460ff16151592810192909252156117f4579392505050565b611790565b505b604051636f96cda160e11b815260040160405180910390fd5b600080546001600160a01b038381166001600160a01b0319831681178455604051919092169283917f8be0079c531659141344cd1fd0a4f28419497f9722a3daafe3b4186f6b6457e09190a35050565b604051630a85bd0160e11b81526000906001600160a01b0385169063150b7a029061189990339089908890889060040161234f565b6020604051808303816000875af19250505080156118d4575060408051601f3d908101601f191682019092526118d191810190612382565b60015b611932573d808015611902576040519150601f19603f3d011682016040523d82523d6000602084013e611907565b606091505b50805160000361192a576040516368d2bf6b60e11b815260040160405180910390fd5b805181602001fd5b6001600160e01b031916630a85bd0160e11b1490505b949350505050565b6060600061195d83611aee565b60010190506000816001600160401b0381111561197c5761197c611d6a565b6040519080825280601f01601f1916602001820160405280156119a6576020820181803683370190505b5090508181016020015b600019016f181899199a1a9b1b9c1cb0b131b232b360811b600a86061a8153600a85049450846119b057509392505050565b60115460009060ff166119f757506001610978565b60008060008451604114611a115760009350505050610978565b50505060208201516040830151606084015160001a601b811015611a3d57611a3a601b8261239f565b90505b60008160ff16601b1480611a5457508160ff16601c145b15611ab95760408051600081526020810180835289905260ff841691810191909152606081018590526080810184905260019060a0016020604051602081039080840390855afa158015611aac573d6000803e3d6000fd5b5050506020604051035190505b6015546001600160a01b039182169116149695505050505050565b610928828260405180602001604052806000815250611bc4565b60008072184f03e93ff9f4daa797ed6e38ed64bf6a1f0160401b8310611b2d5772184f03e93ff9f4daa797ed6e38ed64bf6a1f0160401b830492506040015b6904ee2d6d415b85acef8160201b8310611b57576904ee2d6d415b85acef8160201b830492506020015b662386f26fc100008310611b7557662386f26fc10000830492506010015b6305f5e1008310611b8d576305f5e100830492506008015b6127108310611ba157612710830492506004015b60648310611bb3576064830492506002015b600a83106109785760010192915050565b610adc838383600180546001600160a01b038516611bf457604051622e076360e81b815260040160405180910390fd5b83600003611c155760405163b562e8dd60e01b815260040160405180910390fd5b6001600160a01b038516600081815260066020908152604080832080546001600160801b031981166001600160401b038083168c018116918217600160401b67ffffffffffffffff1990941690921783900481168c01811690920217909155858452600590925290912080546001600160e01b031916909217600160a01b429092169190910217905580808501838015611cb857506001600160a01b0387163b15155b15611d2e575b60405182906001600160a01b038916906000906000805160206123b9833981519152908290a4611cf76000888480600101955088611864565b611d14576040516368d2bf6b60e11b815260040160405180910390fd5b808203611cbe578260015414611d2957600080fd5b611d61565b5b6040516001830192906001600160a01b038916906000906000805160206123b9833981519152908290a4808203611d2f575b50600155611682565b634e487b7160e01b600052604160045260246000fd5b60006001600160401b0380841115611d9a57611d9a611d6a565b604051601f8501601f19908116603f01168101908282118183101715611dc257611dc2611d6a565b81604052809350858152868686011115611ddb57600080fd5b858560208301376000602087830101525050509392505050565b600082601f830112611e0657600080fd5b611e1583833560208501611d80565b9392505050565b60008060408385031215611e2f57600080fd5b82356001600160401b03811115611e4557600080fd5b611e5185828601611df5565b95602094909401359450505050565b6001600160e01b03198116811461125257600080fd5b600060208284031215611e8857600080fd5b8135611e1581611e60565b60005b83811015611eae578181015183820152602001611e96565b50506000910152565b60008151808452611ecf816020860160208601611e93565b601f01601f19169290920160200192915050565b602081526000611e156020830184611eb7565b600060208284031215611f0857600080fd5b5035919050565b80356001600160a01b0381168114611f2657600080fd5b919050565b60008060408385031215611f3e57600080fd5b611f4783611f0f565b946020939093013593505050565b600060208284031215611f6757600080fd5b611e1582611f0f565b600080600060608486031215611f8557600080fd5b611f8e84611f0f565b9250611f9c60208501611f0f565b9150604084013590509250925092565b80358015158114611f2657600080fd5b600060208284031215611fce57600080fd5b611e1582611fac565b60008060008060808587031215611fed57600080fd5b5050823594602084013594506040840135936060013592509050565b60006020828403121561201b57600080fd5b81356001600160401b0381111561203157600080fd5b8201601f8101841361204257600080fd5b61194884823560208401611d80565b6000806040838503121561206457600080fd5b61206d83611f0f565b915061207b60208401611fac565b90509250929050565b6000806000806080858703121561209a57600080fd5b6120a385611f0f565b93506120b160208601611f0f565b92506040850135915060608501356001600160401b038111156120d357600080fd5b6120df87828801611df5565b91505092959194509250565b600080604083850312156120fe57600080fd5b61210783611f0f565b915061207b60208401611f0f565b6020808252600c908201526b14dd5c1c1b1e481b1a5b5a5d60a21b604082015260600190565b634e487b7160e01b600052601160045260246000fd5b808201808211156109785761097861213b565b600181811c9082168061217857607f821691505b60208210810361219857634e487b7160e01b600052602260045260246000fd5b50919050565b6000816121ad576121ad61213b565b506000190190565b602080825260149082015273546f74616c20737570706c7920746f6f206c6f7760601b604082015260600190565b6000600182016121f5576121f561213b565b5060010190565b601f821115610adc57600081815260208120601f850160051c810160208610156122235750805b601f850160051c820191505b818110156122425782815560010161222f565b505050505050565b81516001600160401b0381111561226357612263611d6a565b612277816122718454612164565b846121fc565b602080601f8311600181146122ac57600084156122945750858301515b600019600386901b1c1916600185901b178555612242565b600085815260208120601f198616915b828110156122db578886015182559484019460019091019084016122bc565b50858210156122f95787850151600019600388901b60f8161c191681555b5050505050600190811b01905550565b6000835161231b818460208801611e93565b83519083019061232f818360208801611e93565b01949350505050565b80820281158282048414176109785761097861213b565b6001600160a01b03858116825284166020820152604081018390526080606082018190526000906113c790830184611eb7565b60006020828403121561239457600080fd5b8151611e1581611e60565b60ff81811683821601908111156109785761097861213b56feddf252ad1be2c89b69c2b068fc378daa952ba7f163c4a11628f55a4df523b3efa26469706673582212208de4757ee768d1296541d3c9f68a84f47a6e2c41b5e0bc7602cfdba142cb831664736f6c63430008110033",
  "linkReferences": {},
  "deployedLinkReferences": {}
}